{
  "address": "0x3B74508A265A3849b3E45EDca2bBa051E32E782e",
  "abi": [
    {
      "inputs": [
        {
          "internalType": "address",
          "name": "_wrappedNative",
          "type": "address"
        },
        {
          "internalType": "address",
          "name": "_factory",
          "type": "address"
        },
        {
          "internalType": "bytes32",
          "name": "_initCodeHash",
          "type": "bytes32"
        }
      ],
      "stateMutability": "nonpayable",
      "type": "constructor"
    },
    {
      "anonymous": false,
      "inputs": [
        {
          "indexed": true,
          "internalType": "bytes32",
          "name": "key",
          "type": "bytes32"
        },
        {
          "indexed": true,
          "internalType": "address",
          "name": "owner",
          "type": "address"
        },
        {
          "indexed": false,
          "internalType": "uint256",
          "name": "amount",
          "type": "uint256"
        }
      ],
      "name": "LogCancelled",
      "type": "event"
    },
    {
      "anonymous": false,
      "inputs": [
        {
          "indexed": true,
          "internalType": "bytes32",
          "name": "key",
          "type": "bytes32"
        },
        {
          "components": [
            {
              "internalType": "address",
              "name": "owner",
              "type": "address"
            },
            {
              "internalType": "address",
              "name": "beneficiary",
              "type": "address"
            },
            {
              "internalType": "address",
              "name": "outputToken",
              "type": "address"
            },
            {
              "internalType": "uint256",
              "name": "epochAmount",
              "type": "uint256"
            },
            {
              "internalType": "uint256",
              "name": "maxRelayerFee",
              "type": "uint256"
            },
            {
              "internalType": "uint256",
              "name": "salt",
              "type": "uint256"
            },
            {
              "internalType": "uint256",
              "name": "epoch",
              "type": "uint256"
            },
            {
              "internalType": "uint256",
              "name": "expiryDate",
              "type": "uint256"
            },
            {
              "internalType": "address[]",
              "name": "path",
              "type": "address[]"
            }
          ],
          "indexed": false,
          "internalType": "struct UniswapV2DCAOrder",
          "name": "order",
          "type": "tuple"
        },
        {
          "indexed": false,
          "internalType": "uint256",
          "name": "amountIn",
          "type": "uint256"
        }
      ],
      "name": "LogDeposit",
      "type": "event"
    },
    {
      "anonymous": false,
      "inputs": [
        {
          "indexed": true,
          "internalType": "bytes32",
          "name": "key",
          "type": "bytes32"
        },
        {
          "indexed": true,
          "internalType": "address",
          "name": "beneficiary",
          "type": "address"
        },
        {
          "indexed": false,
          "internalType": "uint256",
          "name": "amount",
          "type": "uint256"
        }
      ],
      "name": "LogFill",
      "type": "event"
    },
    {
      "inputs": [],
      "name": "FACTORY_ADDRESS",
      "outputs": [
        {
          "internalType": "address",
          "name": "",
          "type": "address"
        }
      ],
      "stateMutability": "view",
      "type": "function"
    },
    {
      "inputs": [],
      "name": "INIT_CODE_HASH",
      "outputs": [
        {
          "internalType": "bytes32",
          "name": "",
          "type": "bytes32"
        }
      ],
      "stateMutability": "view",
      "type": "function"
    },
    {
      "inputs": [],
      "name": "WRAPPED_NATIVE",
      "outputs": [
        {
          "internalType": "address",
          "name": "",
          "type": "address"
        }
      ],
      "stateMutability": "view",
      "type": "function"
    },
    {
      "inputs": [
        {
          "components": [
            {
              "internalType": "address",
              "name": "owner",
              "type": "address"
            },
            {
              "internalType": "address",
              "name": "beneficiary",
              "type": "address"
            },
            {
              "internalType": "address",
              "name": "outputToken",
              "type": "address"
            },
            {
              "internalType": "uint256",
              "name": "epochAmount",
              "type": "uint256"
            },
            {
              "internalType": "uint256",
              "name": "maxRelayerFee",
              "type": "uint256"
            },
            {
              "internalType": "uint256",
              "name": "salt",
              "type": "uint256"
            },
            {
              "internalType": "uint256",
              "name": "epoch",
              "type": "uint256"
            },
            {
              "internalType": "uint256",
              "name": "expiryDate",
              "type": "uint256"
            },
            {
              "internalType": "address[]",
              "name": "path",
              "type": "address[]"
            }
          ],
          "internalType": "struct UniswapV2DCAOrder",
          "name": "_order",
          "type": "tuple"
        }
      ],
      "name": "cancelOrder",
      "outputs": [],
      "stateMutability": "nonpayable",
      "type": "function"
    },
    {
      "inputs": [
        {
          "components": [
            {
              "internalType": "address",
              "name": "owner",
              "type": "address"
            },
            {
              "internalType": "address",
              "name": "beneficiary",
              "type": "address"
            },
            {
              "internalType": "address",
              "name": "outputToken",
              "type": "address"
            },
            {
              "internalType": "uint256",
              "name": "epochAmount",
              "type": "uint256"
            },
            {
              "internalType": "uint256",
              "name": "maxRelayerFee",
              "type": "uint256"
            },
            {
              "internalType": "uint256",
              "name": "salt",
              "type": "uint256"
            },
            {
              "internalType": "uint256",
              "name": "epoch",
              "type": "uint256"
            },
            {
              "internalType": "uint256",
              "name": "expiryDate",
              "type": "uint256"
            },
            {
              "internalType": "address[]",
              "name": "path",
              "type": "address[]"
            }
          ],
          "internalType": "struct UniswapV2DCAOrder",
          "name": "_order",
          "type": "tuple"
        }
      ],
      "name": "depositOrder",
      "outputs": [],
      "stateMutability": "payable",
      "type": "function"
    },
    {
      "inputs": [
        {
          "components": [
            {
              "internalType": "address",
              "name": "owner",
              "type": "address"
            },
            {
              "internalType": "address",
              "name": "beneficiary",
              "type": "address"
            },
            {
              "internalType": "address",
              "name": "outputToken",
              "type": "address"
            },
            {
              "internalType": "uint256",
              "name": "epochAmount",
              "type": "uint256"
            },
            {
              "internalType": "uint256",
              "name": "maxRelayerFee",
              "type": "uint256"
            },
            {
              "internalType": "uint256",
              "name": "salt",
              "type": "uint256"
            },
            {
              "internalType": "uint256",
              "name": "epoch",
              "type": "uint256"
            },
            {
              "internalType": "uint256",
              "name": "expiryDate",
              "type": "uint256"
            },
            {
              "internalType": "address[]",
              "name": "path",
              "type": "address[]"
            }
          ],
          "internalType": "struct UniswapV2DCAOrder",
          "name": "_order",
          "type": "tuple"
        },
        {
          "internalType": "uint256",
          "name": "_fee",
          "type": "uint256"
        }
      ],
      "name": "fill",
      "outputs": [],
      "stateMutability": "nonpayable",
      "type": "function"
    },
    {
      "inputs": [
        {
          "internalType": "bytes32",
          "name": "_key",
          "type": "bytes32"
        }
      ],
      "name": "isActiveOrder",
      "outputs": [
        {
          "internalType": "bool",
          "name": "",
          "type": "bool"
        }
      ],
      "stateMutability": "view",
      "type": "function"
    },
    {
      "inputs": [
        {
          "components": [
            {
              "internalType": "address",
              "name": "owner",
              "type": "address"
            },
            {
              "internalType": "address",
              "name": "beneficiary",
              "type": "address"
            },
            {
              "internalType": "address",
              "name": "outputToken",
              "type": "address"
            },
            {
              "internalType": "uint256",
              "name": "epochAmount",
              "type": "uint256"
            },
            {
              "internalType": "uint256",
              "name": "maxRelayerFee",
              "type": "uint256"
            },
            {
              "internalType": "uint256",
              "name": "salt",
              "type": "uint256"
            },
            {
              "internalType": "uint256",
              "name": "epoch",
              "type": "uint256"
            },
            {
              "internalType": "uint256",
              "name": "expiryDate",
              "type": "uint256"
            },
            {
              "internalType": "address[]",
              "name": "path",
              "type": "address[]"
            }
          ],
          "internalType": "struct UniswapV2DCAOrder",
          "name": "_order",
          "type": "tuple"
        }
      ],
      "name": "keyOf",
      "outputs": [
        {
          "internalType": "bytes32",
          "name": "",
          "type": "bytes32"
        }
      ],
      "stateMutability": "pure",
      "type": "function"
    },
    {
      "inputs": [
        {
          "internalType": "bytes32",
          "name": "",
          "type": "bytes32"
        }
      ],
      "name": "orderValue",
      "outputs": [
        {
          "internalType": "uint256",
          "name": "",
          "type": "uint256"
        }
      ],
      "stateMutability": "view",
      "type": "function"
    }
  ],
  "transactionHash": "0x54c40c3e913243588db052eca8b092b6b9b212b5cc54eea86eaf62f8cfc0d993",
  "args": [
    "0xc778417E063141139Fce010982780140Aa0cD5Ab",
    "0x5C69bEe701ef814a2B6a3EDD4B1652CB9cc5aA6f",
    "0x96e8ac4277198ff8b6f785478aa9a39f403cb768dd02cbee326c3e7da348845f"
  ],
  "numDeployments": 1,
  "solcInputHash": "0619c75a2450a48e44eb863193b6e070",
  "bytecode": "0x60e06040523480156200001157600080fd5b5060405162001e6238038062001e6283398101604081905262000034916200006d565b6001600160a01b03928316608052911660a05260c052620000ae565b80516001600160a01b03811681146200006857600080fd5b919050565b6000806000606084860312156200008357600080fd5b6200008e8462000050565b92506200009e6020850162000050565b9150604084015190509250925092565b60805160a05160c051611d236200013f6000396000818160b201528181610800015281816108820152818161097f01526109f6015260008181610185015281816107dd0152818161082b0152818161095e015281816109d30152610a21015260008181610211015281816106b8015281816108aa0152818161092101528181610a5f0152610ad70152611d236000f3fe6080604052600436106100865760003560e01c80637e0c3458116100595780637e0c3458146101345780638823151b146101735780639e9cf192146101bf578063c12a2421146101df578063d999984d146101ff57600080fd5b806309fca01b1461008b578063257671f5146100a05780632b8337de146100e75780634f82627114610114575b600080fd5b61009e61009936600461183c565b610233565b005b3480156100ac57600080fd5b506100d47f000000000000000000000000000000000000000000000000000000000000000081565b6040519081526020015b60405180910390f35b3480156100f357600080fd5b506100d4610102366004611871565b60006020819052908152604090205481565b34801561012057600080fd5b506100d461012f36600461183c565b6104b3565b34801561014057600080fd5b5061016361014f366004611871565b600090815260208190526040902054151590565b60405190151581526020016100de565b34801561017f57600080fd5b506101a77f000000000000000000000000000000000000000000000000000000000000000081565b6040516001600160a01b0390911681526020016100de565b3480156101cb57600080fd5b5061009e6101da36600461188a565b6104e3565b3480156101eb57600080fd5b5061009e6101fa36600461183c565b610c2e565b34801561020b57600080fd5b506101a77f000000000000000000000000000000000000000000000000000000000000000081565b3460000361028b5760405162461bcd60e51b815260206004820152602c6024820152600080516020611cce83398151915260448201526b03a2056414c55455f49535f360a41b60648201526084015b60405180910390fd5b428160e00135116102e45760405162461bcd60e51b815260206004820152602f6024820152600080516020611cce83398151915260448201526e0e8813d491115497d1561412549151608a1b6064820152608401610282565b6102f460408201602083016118eb565b6001600160a01b031661030d60408301602084016118eb565b6001600160a01b03161461036f5760405162461bcd60e51b81526020600482015260356024820152600080516020611cce8339815191526044820152743a2042454e45464943494152595f4144445245535360581b6064820152608401610282565b3361037d60208301836118eb565b6001600160a01b0316146103df5760405162461bcd60e51b81526020600482015260356024820152600080516020611cce8339815191526044820152743a2057524f4e475f4f574e45525f4144445245535360581b6064820152608401610282565b60006103ea826104b3565b600081815260208190526040902054909150156104565760405162461bcd60e51b81526020600482015260366024820152600080516020611cce8339815191526044820152753a204f524445525f414c52454144595f45585349545360501b6064820152608401610282565b6000818152602081815260408083203490819055600190925291829020429055905182917fc4923dc286ccaf799582e1e76b77690e9ba47fda6774926515a1ccc213c7cf48916104a7918691611a38565b60405180910390a25050565b6000816040516020016104c69190611a5a565b604051602081830303815290604052805190602001209050919050565b60006104ee836104b3565b60008181526020819052604090205490915061055c5760405162461bcd60e51b815260206004820152602760248201527f446f6c6c6172436f7374417665726167696e672e66696c6c3a20494e56414c49604482015266222fa7a92222a960c91b6064820152608401610282565b600081815260208190526040902054608084013583106105cc5760405162461bcd60e51b815260206004820152602560248201527f446f6c6c6172436f7374417665726167696e672e66696c6c3a204645455f544f6044820152640be90928e960db1b6064820152608401610282565b82811161062e5760405162461bcd60e51b815260206004820152602a60248201527f446f6c6c6172436f7374417665726167696e672e66696c6c3a204e4f545f454e6044820152694f5547485f46554e445360b01b6064820152608401610282565b60008281526001602052604090205461064b60c086013542611a83565b116106985760405162461bcd60e51b815260206004820152601f60248201527f446f6c6c6172436f7374417665726167696e672e66696c6c3a2045504f4348006044820152606401610282565b60008060608060026106ae6101008a018a611a9a565b9050101561074a577f0000000000000000000000000000000000000000000000000000000000000000826000815181106106ea576106ea611ae4565b6001600160a01b03909216602092830291909101909101526107126060890160408a016118eb565b8260018151811061072557610725611ae4565b60200260200101906001600160a01b031690816001600160a01b03168152505061078d565b610758610100890189611a9a565b808060200260200160405190810160405280939291908181526020018383602002808284376000920191909152509294505050505b61079b606089013588611afa565b8511156109a857606088013592506107b38388611afa565b6107bd9086611a83565b6000878152602081815260408083209390935560019052204290556108247f000000000000000000000000000000000000000000000000000000000000000084847f0000000000000000000000000000000000000000000000000000000000000000610e71565b90506108a67f00000000000000000000000000000000000000000000000000000000000000008360008151811061085d5761085d611ae4565b60200260200101518460018151811061087857610878611ae4565b60200260200101517f0000000000000000000000000000000000000000000000000000000000000000610ffe565b93507f00000000000000000000000000000000000000000000000000000000000000006001600160a01b031663d0e30db0846040518263ffffffff1660e01b81526004016000604051808303818588803b15801561090357600080fd5b505af1158015610917573d6000803e3d6000fd5b50505050506109477f000000000000000000000000000000000000000000000000000000000000000085856110bc565b6109a3818361095c60408c0160208d016118eb565b7f00000000000000000000000000000000000000000000000000000000000000007f0000000000000000000000000000000000000000000000000000000000000000611113565b610b12565b60008681526020818152604080832083905560019091528120556109cc8786611a83565b9250610a1a7f000000000000000000000000000000000000000000000000000000000000000084847f0000000000000000000000000000000000000000000000000000000000000000610e71565b9050610a537f00000000000000000000000000000000000000000000000000000000000000008360008151811061085d5761085d611ae4565b93506001600160a01b037f00000000000000000000000000000000000000000000000000000000000000001663d0e30db0610a8e8988611a83565b6040518263ffffffff1660e01b81526004016000604051808303818588803b158015610ab957600080fd5b505af1158015610acd573d6000803e3d6000fd5b5050505050610afd7f000000000000000000000000000000000000000000000000000000000000000085856110bc565b610b12818361095c60408c0160208d016118eb565b604051600090339089908381818185875af1925050503d8060008114610b54576040519150601f19603f3d011682016040523d82523d6000602084013e610b59565b606091505b5050905080610bd05760405162461bcd60e51b815260206004820152603760248201527f446f6c6c6172436f7374417665726167696e672e66696c6c3a2053454e445f4e60448201527f41544956455f544f5f52414c415945525f4641494c45440000000000000000006064820152608401610282565b610be060408a0160208b016118eb565b6001600160a01b0316877fc1a437aba5524559031a68815d3bbb86fac1773a7a568af4faa3394d5cdc748086604051610c1b91815260200190565b60405180910390a3505050505050505050565b610c3b60208201826118eb565b6001600160a01b0316336001600160a01b031614610cb25760405162461bcd60e51b815260206004820152602e60248201527f446f6c6c6172436f7374417665726167696e672e63616e63656c4f726465723a60448201526d1024a72b20a624a22fa7aba722a960911b6064820152608401610282565b6000610cbd826104b3565b600081815260208190526040902054909150610d325760405162461bcd60e51b815260206004820152602e60248201527f446f6c6c6172436f7374417665726167696e672e63616e63656c4f726465723a60448201526d1024a72b20a624a22fa7a92222a960911b6064820152608401610282565b600081815260208181526040808320805490849055600183529083208390559190610d5f908501856118eb565b6001600160a01b03168260405160006040518083038185875af1925050503d8060008114610da9576040519150601f19603f3d011682016040523d82523d6000602084013e610dae565b606091505b5050905080610e1b5760405162461bcd60e51b815260206004820152603360248201527f446f6c6c6172436f7374417665726167696e672e63616e63656c4f726465723a6044820152720814d1539117d3905512559157d19052531151606a1b6064820152608401610282565b610e2860208501856118eb565b6001600160a01b0316837f748f3ed3813a0b11e46a6229680e83073e44e99f7a093329b13abab8409d1b9884604051610e6391815260200190565b60405180910390a350505050565b6060600283511015610ec55760405162461bcd60e51b815260206004820152601e60248201527f556e697377617056324c6962726172793a20494e56414c49445f5041544800006044820152606401610282565b825167ffffffffffffffff811115610edf57610edf611b12565b604051908082528060200260200182016040528015610f08578160200160208202803683370190505b5090508381600081518110610f1f57610f1f611ae4565b60200260200101818152505060005b60018451610f3c9190611a83565b811015610ff557600080610f9088878581518110610f5c57610f5c611ae4565b602002602001015188866001610f729190611afa565b81518110610f8257610f82611ae4565b6020026020010151886112df565b91509150610fb8848481518110610fa957610fa9611ae4565b602002602001015183836113ab565b84610fc4856001611afa565b81518110610fd457610fd4611ae4565b60200260200101818152505050508080610fed90611b28565b915050610f2e565b50949350505050565b600080600061100d86866114ca565b6040516bffffffffffffffffffffffff19606084811b8216602084015283901b166034820152919350915087906048016040516020818303038152906040528051906020012085604051602001611099939291906001600160f81b0319815260609390931b6bffffffffffffffffffffffff191660018401526015830191909152603582015260550190565b60408051601f198184030181529190528051602090910120979650505050505050565b604080516001600160a01b038416602482015260448082018490528251808303909101815260649091019091526020810180516001600160e01b031663a9059cbb60e01b17905261110e9084906115c1565b505050565b60005b600185516111249190611a83565b8110156112d75760008086838151811061114057611140611ae4565b6020026020010151878460016111569190611afa565b8151811061116657611166611ae4565b602002602001015191509150600061117e83836114ca565b50905060008961118f866001611afa565b8151811061119f5761119f611ae4565b60200260200101519050600080836001600160a01b0316866001600160a01b0316146111cd578260006111d1565b6000835b91509150600060028c516111e59190611a83565b88106111f1578a611220565b6112208a878e6112028c6002611afa565b8151811061121257611212611ae4565b60200260200101518c610ffe565b905061122e8a88888c610ffe565b6001600160a01b031663022c0d9f84848460006040519080825280601f01601f19166020018201604052801561126b576020820181803683370190505b506040518563ffffffff1660e01b815260040161128b9493929190611b9d565b600060405180830381600087803b1580156112a557600080fd5b505af11580156112b9573d6000803e3d6000fd5b505050505050505050505080806112cf90611b28565b915050611116565b505050505050565b60008060006112ee86866114ca565b50905060008061130089898989610ffe565b6001600160a01b0316630902f1ac6040518163ffffffff1660e01b8152600401606060405180830381865afa15801561133d573d6000803e3d6000fd5b505050506040513d601f19601f820116820180604052508101906113619190611beb565b506001600160701b031691506001600160701b03169150826001600160a01b0316886001600160a01b03161461139857808261139b565b81815b909a909950975050505050505050565b60008084116114105760405162461bcd60e51b815260206004820152602b60248201527f556e697377617056324c6962726172793a20494e53554646494349454e545f4960448201526a1394155517d05353d5539560aa1b6064820152608401610282565b6000831180156114205750600082115b61147d5760405162461bcd60e51b815260206004820152602860248201527f556e697377617056324c6962726172793a20494e53554646494349454e545f4c604482015267495155494449545960c01b6064820152608401610282565b600061148b856103e5611693565b905060006114998285611693565b905060006114b3836114ad886103e8611693565b906116a6565b90506114bf8183611c3b565b979650505050505050565b600080826001600160a01b0316846001600160a01b03160361153c5760405162461bcd60e51b815260206004820152602560248201527f556e697377617056324c6962726172793a204944454e544943414c5f41444452604482015264455353455360d81b6064820152608401610282565b826001600160a01b0316846001600160a01b03161061155c57828461155f565b83835b90925090506001600160a01b0382166115ba5760405162461bcd60e51b815260206004820152601e60248201527f556e697377617056324c6962726172793a205a45524f5f4144445245535300006044820152606401610282565b9250929050565b6000611616826040518060400160405280602081526020017f5361666545524332303a206c6f772d6c6576656c2063616c6c206661696c6564815250856001600160a01b03166116b29092919063ffffffff16565b80519091501561110e57808060200190518101906116349190611c5d565b61110e5760405162461bcd60e51b815260206004820152602a60248201527f5361666545524332303a204552433230206f7065726174696f6e20646964206e6044820152691bdd081cdd58d8d9595960b21b6064820152608401610282565b600061169f8284611c7f565b9392505050565b600061169f8284611afa565b60606116c184846000856116c9565b949350505050565b60608247101561172a5760405162461bcd60e51b815260206004820152602660248201527f416464726573733a20696e73756666696369656e742062616c616e636520666f6044820152651c8818d85b1b60d21b6064820152608401610282565b6001600160a01b0385163b6117815760405162461bcd60e51b815260206004820152601d60248201527f416464726573733a2063616c6c20746f206e6f6e2d636f6e74726163740000006044820152606401610282565b600080866001600160a01b0316858760405161179d9190611c9e565b60006040518083038185875af1925050503d80600081146117da576040519150601f19603f3d011682016040523d82523d6000602084013e6117df565b606091505b50915091506114bf828286606083156117f957508161169f565b8251156118095782518084602001fd5b8160405162461bcd60e51b81526004016102829190611cba565b6000610120828403121561183657600080fd5b50919050565b60006020828403121561184e57600080fd5b813567ffffffffffffffff81111561186557600080fd5b6116c184828501611823565b60006020828403121561188357600080fd5b5035919050565b6000806040838503121561189d57600080fd5b823567ffffffffffffffff8111156118b457600080fd5b6118c085828601611823565b95602094909401359450505050565b80356001600160a01b03811681146118e657600080fd5b919050565b6000602082840312156118fd57600080fd5b61169f826118cf565b6000808335601e1984360301811261191d57600080fd5b830160208101925035905067ffffffffffffffff81111561193d57600080fd5b8060051b36038313156115ba57600080fd5b8183526000602080850194508260005b8581101561198b576001600160a01b03611978836118cf565b168752958201959082019060010161195f565b509495945050505050565b60006101206001600160a01b036119ac846118cf565b1684526119bb602084016118cf565b6001600160a01b031660208501526119d5604084016118cf565b6001600160a01b038116604086015250606083013560608501526080830135608085015260a083013560a085015260c083013560c085015260e083013560e0850152610100611a2681850185611906565b83838801526114bf848801828461194f565b604081526000611a4b6040830185611996565b90508260208301529392505050565b60208152600061169f6020830184611996565b634e487b7160e01b600052601160045260246000fd5b600082821015611a9557611a95611a6d565b500390565b6000808335601e19843603018112611ab157600080fd5b83018035915067ffffffffffffffff821115611acc57600080fd5b6020019150600581901b36038213156115ba57600080fd5b634e487b7160e01b600052603260045260246000fd5b60008219821115611b0d57611b0d611a6d565b500190565b634e487b7160e01b600052604160045260246000fd5b600060018201611b3a57611b3a611a6d565b5060010190565b60005b83811015611b5c578181015183820152602001611b44565b83811115611b6b576000848401525b50505050565b60008151808452611b89816020860160208601611b41565b601f01601f19169290920160200192915050565b84815283602082015260018060a01b0383166040820152608060608201526000611bca6080830184611b71565b9695505050505050565b80516001600160701b03811681146118e657600080fd5b600080600060608486031215611c0057600080fd5b611c0984611bd4565b9250611c1760208501611bd4565b9150604084015163ffffffff81168114611c3057600080fd5b809150509250925092565b600082611c5857634e487b7160e01b600052601260045260246000fd5b500490565b600060208284031215611c6f57600080fd5b8151801515811461169f57600080fd5b6000816000190483118215151615611c9957611c99611a6d565b500290565b60008251611cb0818460208701611b41565b9190910192915050565b60208152600061169f6020830184611b7156fe446f6c6c6172436f7374417665726167696e672e6465706f7369744f72646572a264697066735822122022ac66b3796e82644a5f2f723f40c845cd935c9c01faf671fa4cfe9027b77d7f64736f6c634300080d0033",
  "devdoc": {
    "kind": "dev",
    "methods": {},
    "version": 1
  },
  "userdoc": {
    "kind": "user",
    "methods": {},
    "version": 1
  },
  "storageLayout": {
    "storage": [
      {
        "astId": 1174,
        "contract": "contracts/DollarCostAveraging.sol:DollarCostAveraging",
        "label": "orderValue",
        "offset": 0,
        "slot": "0",
        "type": "t_mapping(t_bytes32,t_uint256)"
      },
      {
        "astId": 1178,
        "contract": "contracts/DollarCostAveraging.sol:DollarCostAveraging",
        "label": "orderUpdatedAt",
        "offset": 0,
        "slot": "1",
        "type": "t_mapping(t_bytes32,t_uint256)"
      }
    ],
    "types": {
      "t_bytes32": {
        "encoding": "inplace",
        "label": "bytes32",
        "numberOfBytes": "32"
      },
      "t_mapping(t_bytes32,t_uint256)": {
        "encoding": "mapping",
        "key": "t_bytes32",
        "label": "mapping(bytes32 => uint256)",
        "numberOfBytes": "32",
        "value": "t_uint256"
      },
      "t_uint256": {
        "encoding": "inplace",
        "label": "uint256",
        "numberOfBytes": "32"
      }
    }
  }
}